:020000040800F2
:10000000080F00209D010008552D00082D2700082D
:10001000D52A00081B070008F13500080000000081
:10002000000000000000000000000000912E000809
:10003000090B000800000000692D0008E92E0008E7
:10004000B7010008B7010008B7010008B7010008B0
:10005000B7010008B7010008B7010008B7010008A0
:10006000B7010008B7010008B7010008B701000890
:10007000B7010008B7010008B7010008B701000880
:10008000590A0008B7010008B7010008290700084D
:100090001D070008B7010008B7010008B7010008F4
:1000A000B7010008B7010008B7010008B701000850
:1000B000B7010008C52F0008D12F0008B7010008BC
:1000C000B7010008B7010008B7010008B701000830
:1000D000B7010008D1350008E5350008B701000870
:1000E000B7010008B7010008B7010008B701000810
:1000F000B7010008B7010008B7010008B701000800
:10010000B7010008B7010008B7010008B7010008EF
:10011000B7010008B7010008B7010008DD2F00088B
:10012000B7010008B7010008B7010008B7010008CF
:10013000B7010008B7010008B7010008410700082F
:1001400035070008B7010008B7010008B70100082B
:10015000B7010008B7010008B7010008B70100089F
:10016000B7010008B7010008B7010008B70100088F
:10017000B7010008B7010008B7010008000000003F
:10018000B7010008B7010008DFF80CD000F032FA20
:1001900000480047F13B0008080F00200648804750
:1001A00006480047FEE7FEE7FEE7FEE7FEE7FEE75C
:1001B000FEE7FEE7FEE7FEE7712F00088901000871
:1001C0002DE9F05F0546002092469B46884606468C
:1001D000814640241BE0284641464746224600F01F
:1001E0008AF953465A46C01A914110D3114618460F
:1001F000224600F071F92D1A67EB01084F4622469E
:100200000120002100F068F917EB00094E41201E83
:10021000A4F10104DFDC484631462A464346BDE8E6
:10022000F09FD2B201E000F8012B491EFBD27047CB
:100230000022F6E710B513460A4604461946FFF7B2
:10024000F0FF204610BD2DE9FE4F804681EA0300F5
:10025000C00F0C46009021F0004123F00045B8EBA0
:100260000200A94105D24046214690461C460B4655
:10027000024623F00040104347D0270DC7F30A0081
:10028000C3F30A510290401A019040286BDAC3F37D
:10029000130040F4801B0098924620B10023D2EB5B
:1002A000030A63EB0B0B01985946C0F1400250461C
:1002B00000F012F906460D4650465946019A00F0E4
:1002C0002AF910EB08006141002487EA115284EA00
:1002D000E7731A4340D0009A62B3019A012A4FEAA9
:1002E000075215DC001B61EB02014FF0004202EAED
:1002F0000752CDE90042001C41F5801132462B46E1
:1003000000F02AF903B0BDE8F08F40462146F9E736
:10031000001B61EB0201001C41F5801300185B41DA
:100320002018A2F5001747EB030140EAD570B61973
:100330006D4111E06D084FEA360645EAC0754FEA97
:100340000752001B61EB0201001C41F580114908B6
:100350004FEA30000019514132462B4603B0BDE848
:10036000F04F00F0EAB80098012240000023D0EBE3
:10037000020263EBE073009821464FEAE074B8EBA9
:10038000000061EB0401E9E783F000435BE781F0E3
:10039000004158E72DE9FE4F81EA030404F00044D0
:1003A00021F0004100944FF0000B23F0004350EA8D
:1003B00001045ED052EA03045BD0C3F30A54C1F3D4
:1003C0000A552C44A4F2F3340194A0FB0254C1F367
:1003D000130141F48011C3F3130343F4801301FBB1
:1003E000024400FB034E840A970A44EA815447EA18
:1003F0008357A4FB076802958D0A05FB07854FEA22
:10040000932C04FB0C542705029D4FEA065847EA3B
:100410001637B5EB08056EEB070C870E920E47EA10
:10042000811742EA8312A7FB0201B6EB0B0164EBD2
:1004300000042B0D43EA0C335E1844EB1C50DA46E3
:100440005146E7FB0201C5F313044FEA0B3343EABD
:1004500014534FEA0432019C43EA0603A4F10C044E
:100460000294009CCDE900B400F076F803B0BDE83A
:10047000F08F00200146F9E70EB5C10F80EAE07069
:100480000844CA07002140F233438DE80E000A46B3
:100490000B4600F061F803B000BD70B5C1F30A521D
:1004A00001F000450024C1F3130140F2FF3341F491
:1004B00080119A4201DA002070BD40F233439A4223
:1004C000A2F2334203DC524200F015F800E0904003
:1004D0002C43F1D0404270BD202A04DB203A00FAC0
:1004E00002F1002070479140C2F1200320FA03F38B
:1004F000194390407047202A04DB203A21FA02F089
:100500000021704721FA02F3D040C2F1200291404D
:10051000084319467047202A06DBCB17203A41FAD8
:1005200002F043EAE07306E041FA02F3D040C2F180
:100530002002914008431946704710B5141E73F10C
:10054000000408DA401C41F1000192185B411A4393
:1005500001D120F0010010BD2DE9F04D92469B46DF
:1005600011B1B1FA81F202E0B0FA80F22032904685
:10057000FFF7B2FF04460F4640EA0A0041EA0B01CA
:1005800053465A46084313D0114653EA010019D086
:10059000C8F140025046FFF7AEFF05460E465046F2
:1005A00059464246FFF798FF084305D0012004E072
:1005B00020463946BDE8F08D0020054346EAE07646
:1005C0002C4337430A986305E40AA0EB0800002295
:1005D000FD0A44EA47540A3002D500200146E9E703
:1005E000010510196941DDE9084500196941BDE8B7
:1005F000F04DA2E7064C074D06E0E06840F001032D
:1006000094E8070098471034AC42F6D3FFF7C0FDDA
:10061000445000086450000870B58C1810F8015B55
:1006200015F0070301D110F8013B2A1106D110F88B
:10063000012B03E010F8016B01F8016B5B1EF9D18F
:100640002B0705D40023521E0DD401F8013BFAE715
:1006500010F8013BCB1A921C03E013F8015B01F880
:10066000015B521EF9D5A142D8D3002070BD000015
:1006700010B501220549064801F09CFF054801F02C
:1006800083FC05484068BDE810400047700000202A
:100690001C03002078020020B000002070B5144830
:1006A00000240125407A032802D0012810D01BE045
:1006B0001048114E017819B1047000F099F93570A5
:1006C0000E48017881B1047000F020F835700BE01D
:1006D0000B48017841B1047000F017FA03F0EAFB0F
:1006E0000848057008480570BDE8704000F06AB819
:1006F000FC030020340000204000002035000020D2
:100700005C0000205F0000205E00002000B502F0C9
:1007100025F85DF804EB02F00BB8FEE7014800F0A5
:100720006EBB0000A8010020014800F068BB00007B
:10073000A8010020014800F062BB0000D0010020A9
:10074000014800F05CBB0000D00100200A88C2F321
:100750000A02A2F5806202804A788B78D20842EAC7
:100760004312C2F30A02A2F5806242808A78CB78F3
:10077000920942EA83020B7942EA8322C2F30A0217
:10078000A2F5806282800A794B79520842EAC3124C
:10079000C2F30A02A2F58062C2804A79920902720B
:1007A0004A79C2F301124272CA8842810A8982815F
:1007B0004A89C2810A7B02744A7B4274C989418298
:1007C000704700002DE9F047DFF8E081DFF8E091A5
:1007D000DFF8E0A12DED028B82B098F8000001282F
:1007E00007D099F80000012803D09AF800000128EA
:1007F0007ED1714F714D724C0026386800EBC000FD
:10080000800000EE100A06EB460005EB0010F8EE43
:10081000C00AB0F9000000EE100A06EBC60000EBBB
:100820004000B8EEC00A04EB800003F019FA761C11
:10083000022EE2DB6348006800EBC000800000EE9F
:10084000100A35F9600FF8EEC00A00EE100A5C4895
:10085000B8EEC00AD83003F003FA5B4895ED120AEF
:10086000D0ED000AB8EEC00A5848F8EEE00A03F0EE
:10087000F7F9574E96ED600A9FED568AB5F93000AC
:1008800060EE080A00EE100A06F57370B8EEC00AB2
:1008900003F0E6F9504895ED1E0AD0ED000AB8EED7
:1008A000C00A06F5D870F8EEE00A03F0D9F996ED23
:1008B0007B0AB5F9600060EE080A00EE100A06F542
:1008C0008760B8EEC00A03F0CBF9444D444F06F5FB
:1008D000077095ED060AD7ED000AB8EEC00AF8EEEB
:1008E000E00A03F0BDF9D6ED960AB5F9000000E084
:1008F00056E000EE100A06F2A440B8EEC00A03F07B
:10090000AFF938480168384801603968016194EDF1
:10091000960ABDEEC00A80ED020AB5F900104160EA
:10092000A969416196ED960ABDEEC00A80ED030A01
:1009300094ED600ABDEEC00A10EE100A00B20090FD
:1009400094ED450ABDEEC00A10EE100A94ED2A0A95
:1009500003B2BDEEC00A10EE100A94ED0F0A02B207
:10096000BDEEC00A10EE100A01B2204802F04EF9A6
:1009700094ED7B0ABDEEC00A10EE100A94ED960AC3
:1009800002B2BDEEC00A10EE100A01B2174802F022
:1009900065FA002088F8000089F800008AF8000055
:1009A00002B0BDEC028BBDE8F087000040000020E3
:1009B0005E0000205F0000203800002010040020AE
:1009C000B80700203C0000206400002074060020CE
:1009D00030050020000010426800002000050020C3
:1009E000600000206C00002044000020D0010020A6
:1009F000174A30B450884FF4967110FB01F04FF451
:100A0000257390FBF3F113484160B2F900404FF4B5
:100A1000967214FB02F292FBF3F282600C30002C0F
:100A200003DA0160A2EB010109E005DD0A44C1F12E
:100A30000001C0E9002103E00160C1F10001416053
:100A40008188008830BC09B200B203F095BA00007A
:100A5000FC03002020000020014800F093BC0000AF
:100A60009C03002001681823CAB2103AB2FBF3F2CB
:100A7000054B6FF30901032A9B5CC36500D9091D6F
:100A80008165084670470000444F000810B50146D4
:100A900000208B698A6A4FF0C07453B1B3F5005FD0
:100AA00015D072B1012A0CD0022A0AD0032A09D12A
:100AB00004E01AB1012A06D0022A03D1C96AC90189
:100AC00000D5012010BDC96AA142FAD010BD002A8C
:100AD000F7D0012AF2D0022AF3D0032AF3D010BDB6
:100AE00030B50468256825F48025256004686360B6
:100AF0008368402B036803D099600068C26030BDF2
:100B00009A600068C16030BD704710B502F040F9CE
:100B1000BDE8104002F062B9704790F82020012A29
:100B200007D0022A05D0416A41F4802141620120A8
:100B30007047006842690A43426100207047F0B57F
:100B400090F820500468A468012D05D0022D03D030
:100B5000416A41F4802153E014F0406F01D1E50077
:100B60004BD5C4F30164022C03D9416A41F400015E
:100B700046E00125A5401D608D684FF4C0739DB10E
:100B8000CE6835434E6845EAC605066803EB041790
:100B9000F5514FF4C275076805EB04150E697E51D7
:100BA000097D012905D009E00E88CD6845EA465542
:100BB000EBE701684E5946F480764E511179D2F830
:100BC00005504FF4C67641EA0525016806EB041688
:100BD0008D511178D2F801204FF4C47541EA0221F9
:100BE000026805EB04155151006803EB04114258EB
:100BF00042F0010242500020F0BD416A41F4001170
:100C000041620120F0BD000010B590F82020012ABB
:100C100007D0022A05D0416A41F4802141620120B7
:100C200010BD3B48D0F8002242F00102C0F800227B
:100C3000D0F8002222F47C52C0F80022D0F8002222
:100C40004B6A42EA0322C0F800220A7D02F01F0329
:100C500001229A40D0F81C329343C0F81C32CB6971
:100C6000B3B9D0F80C329343C0F80C328C894B687E
:100C700064F31F434C6900EBC404C4F840320C8990
:100C80000B6864F31F434C6900EBC404C4F844329E
:100C9000CB69012B16D1D0F80C321343C0F80C32BB
:100CA0000C884B6864F31F434C6900EBC404C4F820
:100CB00040320C89CB6864F31F434C6900EBC404D9
:100CC000C4F844328B69002BD0F804320ED01343A1
:100CD000C0F804320B69002BD0F8143208D013434B
:100CE000C0F81432096A012904D008E09343EFE701
:100CF0009343F5E7D0F81C121143C0F81C12D0F84A
:100D0000001221F00101C0F80012002010BD000007
:100D100000640040704730B590F82040012C05D0A9
:100D2000022C03D0416A41F480215DE0046800296F
:100D300055D02469A40754D04FF4D874056804EB47
:100D400001142D5915F00405956005682D594ED0F4
:100D5000ED08556005682C59C4F34004D4604FF485
:100D6000DA74056804EB01142D5905F00F051561BF
:100D700005682D59C5F30725956105682C59240C84
:100D800054614FF4DC72046802EB0112A4581C7029
:100D90000468A458240A5C700468A458240C9C704D
:100DA0000468A258120EDA704FF4DE72046802EB87
:100DB0000112A4581C710468A458240A5C710468C8
:100DC000A458240C9C710468A258120EDA710068B1
:100DD00081B1016941F020010161002030BDE4686A
:100DE000A8E7416A41F400114162012030BD6D0D58
:100DF0001560AFE7C16841F02001C160EDE72DE962
:100E0000F05F0546006800244669D0F804908768C2
:100E1000D0F80CB0D0F810A0D0F81880F10748D066
:100E2000F90714D001218160B80703D5284600F0E6
:100E300090FA0CE0780702D54FF4006407E0380719
:100E400002D54FF4805402E0284600F081FAF805FC
:100E500016D529684FF480708860B80503D52846F8
:100E600000F079FA0CE0780502D544F4005407E06C
:100E7000380502D544F4804402E0284600F06AFABE
:100E8000F80316D529684FF480308860B80303D57D
:100E9000284600F062FA0CE0780302D544F40044DE
:100EA00007E0380302D544F4803402E0284600F01D
:100EB00053FA300707D55FEACB6004D529681020C4
:100EC00044F40074C86070074FF0080707D55FEA64
:100ED0000B7004D52868C760284600F0ABF9B0074E
:100EE00006D52868C068800702D0284600F0A4F91B
:100EF000700607D55FEACA6004D52968102044F45B
:100F000080640861B00607D55FEA0A7004D52868D6
:100F10000761284600F0ECF9F00606D5286800695C
:100F2000800702D0284600F0E4F9B00308D55FEA54
:100F3000C96005D5296810204860284600F0DAF914
:100F4000F00307D55FEA097004D528684760284692
:100F500000F004FA300446D55FEA497040D5F00548
:100F600004D55FEAC87001D044F00104B00504D58F
:100F70005FEA887001D544F00204700504D55FEA89
:100F8000487001D544F00404300529D518F0700FDD
:100F900026D008F07000402815D006DC102809D0B3
:100FA00020280AD0302816D10AE050280ED0602818
:100FB00011D10EE044F008040DE044F010040AE002
:100FC00044F0200407E044F0400404E044F08004CE
:100FD00001E044F480742868816921F07001816126
:100FE000296804204860002C05D0686A20436862A4
:100FF0002846FFF78FFEBDE8F09F70B5040003D0D0
:1010000094F8200010B104E0012070BD204600F0EB
:1010100081F82068016821F00201016000F006FCFF
:101020000546052604E000F001FC401B0A2811D803
:10103000206840688007F6D42068016841F001010B
:10104000016000F0F3FB05460BE000F0EFFB401BF6
:101050000A2806D9606A40F40030606284F8206093
:10106000D2E720684068C007EFD0207E01282068C2
:1010700001683DD021F080010160607E0128206878
:10108000016838D021F040010160A07E012820686D
:10109000016833D021F020010160E07E0128206842
:1010A00001682ED041F010010160207F01282068E6
:1010B000016829D021F008010160607F01282068C3
:1010C000016824D021F004010160D4E90201084341
:1010D000D4E90412114308436168491E084321689A
:1010E000C86100206062012084F82000002070BDEB
:1010F00041F08001C0E741F04001C5E741F0200127
:10110000CAE721F01001CFE741F00801D4E741F030
:101110000401D9E7F0B587B0044614216846FFF70B
:1011200087F83F4B3F48DFF8F4E01968D4F800C077
:101130003C4A02250326092710300024491CF445A7
:101140002CD11960012907D1016841F000710160BB
:10115000006800F000700590106840F00100106019
:10116000106802AB00F0010005904FF4C050CDE9CB
:10117000000583E8D00069462B4800F073FA00228E
:101180001146132000F0C0FB132000F0AFFB00223B
:101190001146142000F0B8FB14203BE0DFF88CE08F
:1011A000F44539D1D0F800C04CF0806CC0F800C0D4
:1011B000D0F800C001290CF0806CCDF814C0196083
:1011C00007D1016841F000710160006800F0007013
:1011D0000590106840F002001060106802AB00F04B
:1011E000020005904FF44050CDE9000583E8D0009F
:1011F00069460F4800F036FA002211463F2000F001
:1012000083FB3F2000F072FB00221146402000F0DB
:101210007BFB402000F06AFB07B0F0BD006400409B
:101220000800002030380240000002400068004002
:10123000000402407047000010B58AB004466B46B7
:1012400002AA0021FFF767FD25492068884244D1A2
:1012500002992448244CA1F20121062932D2DFE868
:1012600001F0030303032418C9B2217001EB41010B
:1012700000EB0110C16A4A1C3229C262694602D8D9
:1012800002F0B0FC01E002F07DFC6088401C608050
:1012900018E050F8EC1F4A1C02601248C030322996
:1012A00069460DD802F09EFC0CE00E49F031C86A88
:1012B000421C32280B48CA62694600F1F000F1D99D
:1012C00002F060FC6088B0F5FA7F06D100206080F3
:1012D0004FF48041054800F09DFA0AB010BD0000AF
:1012E00000680040100400201C0000200010024094
:1012F000704770477047000070B5044690F82000B2
:10130000012804D0606A40F40020606218E00220E6
:1013100084F820002068016821F00101016000F0DC
:1013200085FA05460EE000BF00F080FA401B0A284F
:1013300008D9606A40F400306062052084F820001B
:10134000012070BD20684068C007EDD1606270BDAB
:10135000704770477047704770477047704790F804
:101360003510022903D080214165012070470521F5
:1013700080F835100068016821F00101016000204B
:10138000704700002DE9F84304464FF00009CDF8FE
:10139000009063484FF41651A56D0068B0FBF1F75B
:1013A0002E6894F85C10082000FA01F131420FD049
:1013B00021680A6852070BD50A6822F004020A6005
:1013C00094F85C108840A860606D40F00100606592
:1013D00094F85C104FF0010808FA01F0304208D090
:1013E00021684969090604D5A860606D40F00200D3
:1013F000606594F85C1004208840304208D0216871
:101400000968890704D5A860606D40F00400606534
:1014100094F85C1010208840304218D02168096888
:10142000090714D5A86020680168490304D500683D
:10143000000308D5A16C07E00168C90503D4016861
:1014400021F008010160216C09B12046884794F819
:101450005C1020208840304231D021680968C906DC
:101460002DD5A86094F8350005282068016806D0BD
:10147000490347D5006800031DD4616C1CE021F0CE
:10148000160101602068416921F080014161206CF2
:1014900008B9A06C20B12068016821F00801016042
:1014A00094F85C103F208840A86084F8349084F859
:1014B0003580216D1FE0E16B09B120468847606DE2
:1014C00000282BD0606DC00714D0052084F83500AB
:1014D0002068016821F0010101600098401C009023
:1014E000B84203D820680068C007F6D184F8349069
:1014F00084F83580E16C002910D001B02046BDE8A9
:10150000F04308470168C905D5D4016821F01001EE
:10151000016084F8349084F83580CCE7BDE8F88326
:10152000180000202DE9F041044600F07FF906463E
:101530005CB1002584F83450022084F8350020681E
:10154000016821F0010101600DE00120BDE8F0819A
:1015500000F06CF9801B052805D920206065032068
:1015600084F83500F2E720680068C007F0D12268EF
:10157000116820480140D4E901031843D4E9033637
:101580003343184363691843A3691843E369184355
:10159000236A18430843616A042903D1D4E90B1371
:1015A00019430843106020684069666A20F007010B
:1015B00030460E43012704280CD1A06A0643E06A96
:1015C00040B12046FFF762FA20B14020606584F800
:1015D0003570BAE7206846612046FFF743FA94F871
:1015E0005C203F2191408160656584F83570002062
:1015F000ACE700003F8010F070B5044690F834006E
:10160000002501280CD0012084F8340094F83560BE
:101610000020012E06D084F834000225284670BD33
:10162000022070BD022684F8356060652046FFF711
:1016300057FA2068016841F001010160EEE70000FF
:1016400070B5044600F0F2F80546601C02D004486C
:101650000078044400F0EAF8401BA042FAD370BDC1
:101660000C0000202DE9F84FDFF87CB100224FF08C
:1016700001084FF0030A4FF00F090BF1040E00BFF1
:101680000B6808FA02F42340A3426ED14D68022D84
:1016900001D0122D0ED1D50800EB850CDCF82050BE
:1016A0005607F70E09FA07F6B5430E69BE402E43FA
:1016B000CCF82060066855000F790AFA05FC07F09F
:1016C000030726EA0C06AF40374307604E68012E39
:1016D00005D0022E03D0112E01D0122E0ED1866815
:1016E000CF6826EA0C06AF40374387604668A643BA
:1016F0000C79C4F30014944034434460C6688C6889
:1017000026EA0C06AC403443C4604C68E40065D55E
:10171000364C256845F480452560246822F0030591
:1017200004F480440094324C2E19D6F808489507EA
:101730002F0F09FA07F5AC432E4DA84201D1002521
:1017400024E02D4DA84201D101251FE02B4DA842D8
:1017500001D102251AE02A4DA84201D1032515E046
:10176000284DA84202D1042510E037E0264DA842BA
:1017700001D105250AE0254DA84201D1062505E045
:10178000234DA84201D1072500E00825BD4025438F
:10179000C6F80858DBF800405D464E689C43F603E7
:1017A00000D51C432C60DEF8004075464E689C4313
:1017B000B60300D51C432C600B4D08352C684E68D1
:1017C0009C43F60200D51C432C60074D0C352C6859
:1017D0004E689C43B60200D51C432C60521C102A54
:1017E000FFF44EAFBDE8F88F003C014044380240A2
:1017F00000300140000002400004024000080240A6
:10180000000C024000100240001402400018024088
:10181000001C0240426931EA020200D109048161E0
:1018200070470AB1816170470904FBE7014880688D
:10183000704700000C0000200248816802781144C3
:10184000816070470C0000200B4810B5016841F41E
:1018500000710160016841F480610160016841F438
:1018600080710160032000F06FF8002000F006F89E
:1018700000F024F8002010BD003C024070B50D4D72
:1018800004464FF47A712878B1FBF0F00A490968F0
:10189000B1FBF0F000F0E0FA48B9102C07D20022BA
:1018A0002146501E00F030F800206C6070BD012011
:1018B00070BD00000C000020180000200A4808B588
:1018C000016841F480410160006800F480400090AC
:1018D0000548001F016841F080510160006800F078
:1018E0008050009008BD000044380240002809DB09
:1018F00000F01F02012191404009800000F1E0202A
:10190000C0F8001170470000F0B40E4B1B680C4685
:10191000C3F30223C3F10705042D00D90425191DC3
:10192000072901D2002300E0DB1E012606FA05F19B
:10193000491E214099409E40761E16403143F0BC1E
:1019400001F082BE0CED00E0064900F007020868D5
:101950004FF6FF03184040EA0220034A1043086094
:10196000704700000CED00E00000FA052DE9F0479B
:101970000E46050065D0DFF81481D8F80000F7B2F4
:1019800000F00F00B04207D288F80070D8F80000CD
:1019900000F00F00B04254D128683D4C810712D5A9
:1019A000400703D5206840F4E05020602878000705
:1019B00003D5206840F4604020602068A96820F0CA
:1019C000F000084320602878C0072DD030496868AF
:1019D0000839012812D0022813D0032811D0096831
:1019E000890700292DDA216821F0030101432160D4
:1019F000FFF71CFF814641F2883A0EE0096889032F
:101A0000EFE709688901ECE7FFF710FFA0EB090198
:101A1000514502D90320BDE8F0872068696800F0CD
:101A20000C00B0EB810FEFD1D8F80010404601F068
:101A30000F01B14207D90770006800F00F00B042F3
:101A400001D00120E7E72878400705D52068E9683C
:101A500020F4E050084320602878000706D520686D
:101A6000296920F4604040EAC100206000F036F8A7
:101A70002168084AC1F30311515CC8400649086057
:101A80000020FFF7FBFE0020C5E70000003C0240FD
:101A9000083802404C4F000818000020044805494F
:101AA00000680968044AC1F38221515CC84070474C
:101AB00018000020083802405C4F0008044805491F
:101AC00000680968044AC1F34231515CC84070475C
:101AD00018000020083802405C4F0008154810B577
:101AE000006810F00C02144813D04110042A0FD0E3
:101AF000082A0ED10F4C241F2268236802F03F02EF
:101B00005B0207D52068C0F38810A0FB010106E046
:101B1000084610BD2168C1F38811A1FB0001002314
:101B2000FEF74EFB2168C1F30141491C4900B0FB9F
:101B3000F1F010BD083802400024F4002DE9F84F00
:101B4000050076D02878DFF8F8B2BE4CC00749D03F
:101B5000DBF800105846C1F38101012908D0006864
:101B6000C0F3810002280AD1201D0068400206D57A
:101B70002068800336D568680028E2D032E06868C3
:101B8000B0F5803F10D0B0F5A02F206810D020F421
:101B900080302060206820F4802020606868A0B138
:101BA000FFF744FE06460CE0206840F48030F4E77E
:101BB00040F480202060F7E7FFF738FE801B6428A0
:101BC00073D820688003F7D50CE0FFF72FFE064698
:101BD00005E000BFFFF72AFE801B6428F0D82068CC
:101BE0008003F7D42878DFF8608280074FF000097F
:101BF0003ED5DBF80010584611F00C0F09D00068F4
:101C0000C0F3810002280BD18D48001F00684002FC
:101C100006D42068800715D5E868012809D111E0AD
:101C2000E868B8B10120C8F80000FFF7FFFD0646DC
:101C300005E002E1FFF7FAFD801B0228C0D820680A
:101C40008007F7D52068296920F0F80040EAC10034
:101C500020600DE0C8F80090FFF7E8FD064604E0BC
:101C6000FFF7E4FD801B02281FD820688007F7D407
:101C70002878000722D5724E744869696C3671B1B4
:101C800001210160FFF7D2FD074604E0FFF7CEFD1A
:101C9000C01B022809D830688007F7D50EE0C0F8CD
:101CA0000090FFF7C3FD074605E083E0FFF7BEFDA8
:101CB000C01B02287ED830688007F7D428784007F8
:101CC00068D5DFF87CA100270AF1380ADAF80000AD
:101CD000C0000BD4DAF8001041F08051CAF80010AF
:101CE000DAF80000012700F080500090584E30686C
:101CF000C00510D4306840F480703060FFF796FD66
:101D0000009005E0FFF792FD0099401A022851D893
:101D10003068C005F6D54A4EA868683601280FD04D
:101D20000528306810D020F001003060306820F0C5
:101D300004003060A868B8B1FFF778FD00900FE0AC
:101D4000306840F00100F4E740F004003060F7E74D
:101D5000FFF76CFD0099411A41F28830814264D846
:101D600030688007F4D50EE0FFF760FD009007E0D3
:101D7000FFF75CFD0099411A41F28830814254D846
:101D800030688007F4D42FB1DAF8001021F08051C8
:101D9000CAF80010A869C0B3DBF80010C1F38101D4
:101DA00002294AD00228484607D0C8F86000FFF749
:101DB0003DFD00E039E005463AE04746C8F86000DE
:101DC000FFF734FD064604E0FFF730FD801B0228D4
:101DD0002BD820688001F7D4D5E907010843A96A08
:101DE0001C4A490802EB01416A6A41EA8211084330
:101DF00095F82C1040EA01611148001F0160012094
:101E00003866FFF713FD054605E014E0FFF70EFD09
:101E1000401B022809D820688001F7D50BE000BFDD
:101E2000FFF704FD401B022802D90320BDE8F88F0C
:101E300020688001F4D40020F8E70120F6E70000D4
:101E4000083802400038024000004742800E4742F6
:101E5000007000400000FFFF10B5401EB0F1807F11
:101E600001D3012010BD4FF0E02460610F21601705
:101E700001F0EAFB0020A06107202061002010BDD6
:101E80007047704770B590F83C20012A19D00124A2
:101E900000F83C4F0222427050F83C3C5A689D6862
:101EA00022F070060A684968324325F0800529430C
:101EB0005A6050F83C2C9160447000210170084633
:101EC00070BD022070BD10B5040003D094F83D0031
:101ED00010B107E0012010BD002084F83C0020462E
:101EE00000F00CF8022084F83D00211D206801F06C
:101EF0007FF8012084F83D00002010BD08B51E4A7F
:101F000001681E4891420ED1016841F00201016052
:101F10000068002200F00200009001211D20FFF760
:101F2000F3FC1D2022E0164A91420ED1016841F0D7
:101F3000040101600068002200F00400009002210A
:101F40001E20FFF7E1FC1E2010E00E4A914211D145
:101F5000016841F0200101600068002200F02000CB
:101F6000009011463720FFF7CFFC3720BDE808402E
:101F7000FFF7BCBC08BD0000000400404038024030
:101F800000080040001400400168CA6842F00102E5
:101F9000CA600068816801F00701062903D0016862
:101FA00041F0010101600020704770B5044690F8CF
:101FB0003C00012817D0012584F83C50022084F809
:101FC0003D002068826822F0770222F47F4282601E
:101FD0000868502830D00DDC20284DD005DC98B39F
:101FE00010283BD148E0022070BD302844D0402862
:101FF00034D139E0602828D0702806D0B0F5805F51
:102000002CD0B0F5005F29D10AE0CB68D1E90121DD
:10201000206801F051F82068816841F0770109E0FB
:10202000CB68D1E90121206801F046F82068816879
:1020300041F48041816011E0CA684968206801F07C
:102040004DF85021206807E016E0CA68496820680A
:1020500001F055F86021206801F038F884F83D500F
:10206000002084F83C0070BDCA684968206801F00F
:1020700035F840212068EFE7226801461046EBE77B
:10208000704770B50446006801694FF00005C94308
:10209000890715D4C168C943890711D4E91E0161B4
:1020A00001202077206880698007204602D0FFF752
:1020B000E7FF04E000F098F8204600F096F8257756
:1020C00020680169C943490717D4C168C943490752
:1020D00013D46FF004010161022020772068806929
:1020E00010F4407F204602D0FFF7CAFF04E000F062
:1020F0007BF8204600F079F8257720680169C9430C
:10210000090716D4C168C943090712D46FF0080142
:102110000161042020772068C0698007204602D032
:10212000FFF7AEFF04E000F05FF8204600F05DF836
:10213000257720680169C943C90617D4C168C94316
:10214000C90613D46FF010010161082020772068C0
:10215000C06910F4407F204602D0FFF791FF04E0F1
:1021600000F042F8204600F040F825772068016929
:10217000C943C90708D1C168C943C90704D1891E29
:102180000161204600F032F820680169C943090660
:1021900009D4C168C943090605D46FF08001016103
:1021A0002046FFF76DFE20680169C943490609D43E
:1021B000C168C943490605D46FF04001016120465A
:1021C00000F046F820680169C94389060BD4C1684C
:1021D000C943890607D46FF0200101612046BDE89C
:1021E0007040FFF74EBE70BD7047704710B5006875
:1021F000114988421FD111484FF000030188491C42
:102200000C04240C0480418801F101018AB242804F
:10221000818801F1010181804FF0010106D0084C55
:1022200003802170074C2170074C2170022A02D3D1
:1022300043800648017010BD0004004000000020EB
:10224000350000205C0000205D00002034000020EC
:102250007047704710F8391F4078084370470000F6
:1022600030B401680A68D2065ED50A684968416BD5
:10227000304A096891420AD02F4A914207D02D4A2C
:102280006032914203D02C4A6032914201D1202227
:1022900022E0284B1833DA1499421DD0264B18330C
:1022A000994219D0234B7833994215D0224B783379
:1022B000994211D01F4B9202303399420CD01E4BE1
:1022C0003033994208D01B4B9033994204D01A4BBB
:1022D0009033994200D092010B6823F001030B6008
:1022E000416B154B09684833994202D91249091FBD
:1022F00005E0104BA833994203D90F4908390A6009
:1023000008E00C4C0B4B4834103BA14201D9DA6079
:1023100000E09A60426B818D12685160416B0968E0
:102320000A6842F001020A60816A30BC0348FEF785
:102330000DBA00001060024010640240FC0300204F
:1023400070B5026804461068D168536910F00F0F29
:1023500050D003F0010501F4907635435DD0C207FB
:1023600005D0CA0503D5E26B42F00102E2634207E1
:1023700005D5DA0703D0E26B42F00202E26382077E
:1023800005D5DA0703D0E26B42F00402E2630207EC
:1023900005D5DA0703D0E26B42F00802E263E26B94
:1023A000002A33D0800604D5880602D5204600F0E6
:1023B0000AFF20684069E16BC0F38010090700D470
:1023C00028B3204600F0B5FE2068416949061AD5B9
:1023D000416921F040014161606BA0B11B49016579
:1023E000606BFEF7BCFF002810D0606B016DBDE88C
:1023F00070400847830610D58B060ED52046BDE8F1
:10240000704000F0E0BE2046FFF723FF70BD20467D
:10241000FFF71FFF0020E06370BD030606D50B0623
:1024200004D52046BDE8704001F06EB84006F3D5F3
:102430004806F1D5D168204621F04001D160202125
:1024400084F8391000F071F970BD000023310008E4
:1024500070B5040004D094F83900002510B106E0EE
:10246000012070BD84F83850204600F023F8242065
:1024700084F839002068C16821F40051C160204609
:1024800000F0ECFE2068016921F4904101612068B0
:10249000416921F02A0141612068C16841F400517D
:1024A000C160E563202084F8390084F83A000020F8
:1024B00070BD0000F0B587B0064614216846FDF7F0
:1024C000B7FEDFF8D8E03068002535490222012345
:1024D0000324344F4FF0070C70451FD1304814309F
:1024E000056845F010050560006800F010000590D3
:1024F000086840F0010008600868694600F00100C3
:10250000059060028DE81D103846FFF7ABF80022F9
:1025100011462520FFF7F8F925203BE0DFF888E099
:10252000704539D11E481030D0F800E04EF4003E1E
:10253000C0F800E0006800F400300590086840F042
:10254000010008600868694600F0010005900C2051
:102550008DE81D103846FFF785F8154C13482060AC
:102560004FF00060C4E901054014C4E903506561FF
:10257000A561E561256220466562FEF7D3FF08B1DB
:10258000FEF7CAFA7463002211462620A663FFF7FD
:10259000BBF92620FFF7AAF907B0F0BD00100140F3
:1025A0003038024000000240004400408860024091
:1025B0009C03002090F83A30202B22D1F9B1F2B1DF
:1025C00090F83830012B1CD081628285C2850021B1
:1025D000C163222280F83A2080F838100168CA6866
:1025E00042F48072CA6001684A6942F001024A619D
:1025F0000068C16841F02001C160002070470120DF
:1026000070470220704730B40368DC6844F010045F
:10261000DC6030BC00F09BBD30B5006811498842D9
:102620000CD1114841880A0408D402464C0412789F
:102630004FF0000306D50A2A01D0438030BD41F493
:1026400000410DE00D2A09D0C1F30D04074D491CCE
:1026500089B22A554180C729EFD830BD41F4804165
:10266000418030BD0010014070000020400A002071
:102670002DE9F843044690F839001F4616460D46EA
:10268000202850D1A5B19EB194F8380001284AD035
:10269000012084F838004FF00008C4F83C80212065
:1026A00084F83900FFF7C2F8A6848146E68426E064
:1026B0000120BDE8F883E08C401EE084A0684B4612
:1026C000B0F5805F4FF000024FF080012046009788
:1026D00003D000F04AFFE8B90DE000F046FFC8B9AA
:1026E00028882168C0F308004860206908B16D1C83
:1026F00005E0AD1C03E0216815F8010B4860E08C93
:102700000028D8D14B46002240212046009700F0F7
:102710002CFF08B10320CCE7202084F8390084F88E
:1027200038800020C5E70220C3E77047FEE70000BD
:102730000848B0F904100848322902DB6FF0C701DD
:1027400005E011F1320F01DCC82100E000214160F9
:1027500070470000FC030020380000200D48B0F94D
:1027600006100D48322901DB5A2106E011F1320F23
:1027700002DC6FF0590100E00021016008460749C2
:10278000086007482421B0F9000090FBF1F00549EA
:1027900008607047FC03002038000020440000203F
:1027A0001004002048000020104810B50E490160B8
:1027B0000321416000214FF400228160C0E903122F
:1027C0004FF4401242610176012242768176C17651
:1027D00001774177FEF711FC002803D0BDE81040D7
:1027E000FEF79AB910BD000000640040A801002067
:1027F000104810B50E4901600321416000214FF4DB
:1028000000228160C0E903124FF440124261017658
:10281000012242768176C17601774177FEF7EDFBA2
:10282000002803D0BDE81040FEF776B910BD0000C7
:1028300000680040D0010020094808B5016841F453
:10284000001101600068002200F4001000901146A1
:102850001020FFF759F8BDE808401020FFF746B8F0
:10286000303802402DE9F04387B014216846FDF767
:10287000DFFC30480024016841F0800101600168FC
:1028800001F080010591016841F0010101600168DA
:1028900001F001010591016841F01001016001683A
:1028A00001F010010591016841F00201016000682A
:1028B000214F00F002004FF46045059001222946A7
:1028C0003846FEF7AEFFDFF874804FF40046002272
:1028D00031464046FEF7A5FFDFF864900022C02194
:1028E0004846FEF79EFF00950125CDE90254694652
:1028F00038460195FEF7B6FECDE900650226CDE922
:10290000024669464046FEF7ADFEC020CDE900050F
:10291000CDE9024669464846FEF7A4FE80200090B5
:10292000CDE90154694648460394FEF79BFE07B083
:10293000BDE8F08330380240001002400000024041
:102940000004024010B586B000241748009401949A
:102950000294039404941349059401605321C0E93F
:10296000011440F2E731C0E903148461FFF7ABFAC8
:1029700008B1FEF7D1F84FF48050009069460A483C
:10298000FFF713FB08B1FEF7C7F8049404A9064843
:102990000594FFF777FA002801D0FEF7BDF806B0DE
:1029A00010BD000000040040F801002010B586B002
:1029B000002417480094019402940394049413494A
:1029C000059401605321C0E9011440F2CF71C0E9C0
:1029D00003148461FFF777FA08B1FEF79DF84FF40E
:1029E0008050009069460A48FFF7DFFA08B1FEF709
:1029F00093F8049404A906480594FFF743FA0028C5
:102A000001D0FEF789F806B010BD000000080040B4
:102A1000380200201CB500240F4800940D49019491
:102A2000016042F2D001C0E901144FF47A7184616F
:102A3000C160FFF748FA08B1FEF76EF800946946E6
:102A400005480194FFF71EFA002801D0FEF764F84C
:102A50001CBD000000140040780200200C4810B596
:102A60000A4901604FF4E1314160002181600C228C
:102A7000C160C0E904128161C161FFF7E9FC00286F
:102A800003D0BDE81040FEF747B810BD001001406C
:102A90001C0300200D4810B50B4901600C49416032
:102AA00000214FF480628160C0E903120C22C0E96A
:102AB0000521C161FFF7CCFC002803D0BDE8104020
:102AC000FEF72AB810BD0000004400405C0300205F
:102AD000A0860100FEE700002DE9F041404F0024F0
:102AE0002DED028B44F620659FED3E8ADFED3E8A98
:102AF0004FF4FA5604EBC40000EB400007EB8000F3
:102B0000B0EE481AF0EE680AB7EE080A2B463246D5
:102B1000032100F021F9641C022CEBDB3048B0EEFD
:102B2000481AF0EE680AB7EE080A2B46324603212F
:102B3000D83000F011F9DFED2D8AB0EE481AF0EE32
:102B4000480AB0EE680A0A23C8220321284800F088
:102B500003F9B0EE481ADFED270A9FED270A2B464E
:102B600032460321254800F0F7F82148B0EE481A14
:102B7000F0EE480AB0EE680A0A23142203216C30F2
:102B800000F0EAF81D48B0EE481ADFED1D0AB1EE7C
:102B9000040A2B46324603216C3000F0DDF8104861
:102BA0000323B0EE481AF0EE480A9FED160A3222CF
:102BB00019466C3800F0D0F8B0EE481AF0EE480A2A
:102BC000BDEC028B0321BDE8F0410C489FED0E0ADD
:102BD00045F6D81347F23052D83000F0BDB80000A7
:102BE000B8070020000000008FC2753D0AD7A33B44
:102BF00074060020A69B443C33337340FC0800203D
:102C0000A69B443BEC51383D0000964330B589B05B
:102C10004FF400750C9C0295002504950595082538
:102C200006950D0A8DF800508DF80110110A8DF8E7
:102C30000210190A8DF804108DF80530210A8DF85C
:102C400006108DF803208DF8074001236A4602A97B
:102C5000FDF775FF09B030BD2DE9F04186B00024C5
:102C60002F27CDE904474FF01908CDE900480D465C
:102C7000064602940394DA2322460A21344801F0DE
:102C800055F9CDE90447CDE9004802940394DA23CD
:102C900000220B212E4801F049F90A20FEF7D0FC52
:102CA00005950294CDE903461327CDE90047DA23C1
:102CB00000220A21264801F039F905950294CDE950
:102CC0000346CDE90047DA2300220B21204801F01A
:102CD0002DF90A20FEF7B4FC112505940294039403
:102CE0000494DA2300220A211948CDE9004501F0B5
:102CF0001DF90594029403940494DA2300220B2115
:102D00001348CDE9004501F011F90A20FEF798FCBF
:102D10001F26CDE90446102502940394DA230022ED
:102D20000A210B48CDE9004501F000F9CDE9044640
:102D300002940394DA2300220B210548CDE90045D3
:102D400001F0F4F806B00A20BDE8F041FEF778BCC7
:102D5000A80100207047000030B4024C446630BC2B
:102D600001F060B8253E00087047000010B5064825
:102D7000FFF770FA2028FAD1012204490248FFF730
:102D800019FC0028F8D110BD1C03002070000020A1
:102D900010B50E482DED028BB0F90400FDF76CFB69
:102DA0009FED0B1B53EC112BFDF7F4FA0A4C41EC91
:102DB000180B2068FDF760FB53EC182BFDF743FA66
:102DC000FDF76BFB2060BDEC028B10BDFC03002007
:102DD000FCA9F1D24D62603F6000002070B51B4D30
:102DE0002DED048BB5F9000000EBC0008000FDF76D
:102DF00043FB9FED179B53EC192BFDF7CBFA164CB9
:102E000041EC180B6068FDF737FB53EC182BFDF70E
:102E1000BBFAFDF742FB6060B5F9020000EBC000B1
:102E20008000FDF729FB53EC192BFDF7B3FA41ECB9
:102E3000180BA068FDF720FB53EC182BFDF703FAE5
:102E4000FDF72BFBA060BDEC048B70BDFC030020E4
:102E5000FCA9F1D24D62603F6000002010B588B03F
:102E600040F2FF130093002308240293CDE90334BA
:102E7000090A8DF81810110A8DF81A108DF819200A
:102E80000793012306AA6946FDF759FE08B010BD55
:102E900070470000500340F6B83290FBF2F200B5E4
:102EA00089B00020029104900821CDE905018DF838
:102EB0000000DA218DF801108DF802008DF8040071
:102EC0008DF80500100A8DF8060011218DF8031009
:102ED0008DF8072001236A4602A90248FDF72FFE5C
:102EE00009B000BDA8010020FEF7A6BC30B593B024
:102EF00030216846FDF79CF914210CA8FDF798F9DC
:102F000019480025016841F080510160006800F017
:102F1000805011901548016841F4804101600068BB
:102F2000022400F4804011900120009000040190E0
:102F30008001CDE9064008AA0420A82182E81300F8
:102F40000B906846FEF7FAFD0CA90F2081E83100CE
:102F50004FF4A0500F90E002109005210CA8FEF74E
:102F600005FD13B030BD0000403802400070004045
:102F70001048016841F4700101600F48016841F098
:102F8000010101600C4A00210832116002680B4BFC
:102F90001A400260031D0A4A1A60026822F4802265
:102FA000026005480C30016002495806803908600B
:102FB0007047000088ED00E000380240FFFFF6FE99
:102FC000103000240148FFF75CB80000F801002031
:102FD0000148FFF756B800003802002010B500F095
:102FE00009FBBDE810400148FFF74BB8780200200C
:102FF000F0B50268254C264D264E274F274B4FF043
:10300000804CA04209D0604507D0A84205D0B0420C
:1030100003D0B84201D0984204D122F0700E4A6821
:1030200042EA0E02A0421BD0604519D0A84217D038
:10303000B04215D0B84213D0984211D0184DA842D2
:103040000ED0184DA8420BD0174DA84208D0174DEE
:10305000A84205D0164DA84202D0164DA84203D171
:1030600022F44075CA682A434D6922F080022A433F
:1030700002608A68C2620A688262A04201D09842F5
:1030800001D10969016301214161F0BD00000140E6
:103090000004004000080040000C00400004014013
:1030A0000040014000440140004801400018004039
:1030B000001C00400020004010B5846842EA032252
:1030C00024F47F440A432243826010BD826822F0C8
:1030D00070020A4342F007018160704710B5036A2D
:1030E000046A24F001040462846924F0F00444EAD0
:1030F000021423F00A020A438461026210BD10B573
:10310000036A23F0100303628369046A23F47043A3
:1031100043EA023224F0A00343EA01118261016212
:1031200010BD10B5806B0021C185C184FFF791F8F7
:1031300010BD0168CA6822F49072CA6001684A69C9
:1031400022F001024A61202180F83A107047F8B558
:10315000044690F83A00202833D179B372B394F83A
:10316000380001282DD0012084F83800A162A28502
:103170000025E563222084F83A00606B134605655C
:103180000846666B216802463046091DFEF734FA90
:10319000206801684168009184F83850C16841F4A2
:1031A0008071C1602068416941F00101416120687E
:1031B000416941F0400141610020F8BDFFE7012075
:1031C000FBE70220F9E710B590F83A10222901D068
:1031D000022010BD8168B1F5805F11D0016900291E
:1031E00001681FD0496801F07F03816A4A1C82622E
:1031F0000B70C18D491E0904090CC18518D02BE044
:103200000269816A002A0268526805D0D2B20A8037
:10321000816A491C8162ECE7C2F308020A80816A74
:10322000891CF7E74A68816A4B1C83620A70E0E7F1
:103230000168CA6822F02002CA600168CA6822F4E4
:103240008072CA6001684A6922F001024A61202145
:1032500080F83A10FFF7E0F9002010BD2DE9F041A9
:10326000044600680169E26821F44051114301619C
:103270002169A068E2690843616911432268084333
:10328000D16849F20C6399430143D16020684169D8
:10329000A26921F4407111434161E2696425B2F5EC
:1032A000004F9748974922684FF032083FD08A4232
:1032B00001D082427CD1FEF701FC00EBC00101EBA2
:1032C000001061688900B0FBF1F6FEF7F7FB00EB38
:1032D000C00101EB001061688900B0FBF1F0B0FBA8
:1032E000F5F06FF01801484306EB800108EB011080
:1032F000B0FBF5F000F0F006FEF7E0FB00EBC001DC
:1033000001EB001061688900B0FBF1F0B0FBF5F053
:1033100006EB0016FEF7D2FB00EBC00101EB00103C
:1033200061688900B0FBF1F7FEF7C8FBD2E08A4282
:1033300001D082423DD1FEF7C1FB00EBC00101EBA1
:10334000001061684900B0FBF1F0B0FBF5F0060138
:10335000FEF7B4FB00EBC00101EB0010616849000F
:10336000B0FBF1F7FEF7AAFB00EBC00101EB001088
:1033700061684900B0FBF1F0B0FBF5F06FF01801A7
:10338000484307EB800108EBC100B0FBF5F000F00B
:10339000F80006EB4006FEF791FB00EBC00101EBE5
:1033A000001061684900B0FBF1F7FEF787FB3CE0D5
:1033B00055E0FEF773FB00EBC00101EB0010616804
:1033C0004900B0FBF1F0B0FBF5F00601FEF766FB3B
:1033D00000EBC00101EB001061684900B0FBF1F7A0
:1033E000FEF75CFB00EBC00101EB001061684900D7
:1033F000B0FBF1F0B0FBF5F06FF01801484307EBBC
:10340000800108EBC100B0FBF5F000F0F80006EB1E
:103410004006FEF743FB00EBC00101EB00106168C2
:103420004900B0FBF1F7FEF739FB00EBC00101EBFF
:10343000001061684900B0FBF1F0B0FBF5F06FF0EF
:103440001801484307EB800108EBC100B0FBF5F021
:1034500000F00700216830448860BDE8F081FEF785
:103460001DFB00EBC00101EB001061688900B0FB9F
:10347000F1F6FEF713FB00EBC00101EB00106168F1
:103480008900B0FBF1F0B0FBF5F06FF01801484394
:1034900006EB800108EB0110B0FBF5F000F0F00640
:1034A000FEF7FCFA00EBC00101EB00106168890037
:1034B000B0FBF1F0B0FBF5F006EB0016FEF7EEFA0C
:1034C00000EBC00101EB001061688900B0FBF1F76F
:1034D000FEF7E4FA00EBC00101EB0010616889001F
:1034E000B0FBF1F0B0FBF5F06FF01801484307EBCB
:1034F000800108EB0110B0FBF5F000F00F00A9E728
:10350000001401400010014090F83910212901D029
:10351000022070478168B1F5805F016A0BD04A1CB8
:103520000262026809785160C18C491E0904090CC5
:10353000C1840ED017E009880268C1F30801516008
:1035400001690029016A02D0491C0162ECE7891C6B
:10355000FBE70168CA6822F08002CA600068C1689F
:1035600041F04001C160002070472DE9F0419846CC
:1035700017460E460446069D1DE0681C1BD02DB163
:10358000FEF754F9A0EB0800A84214D92068C168DE
:1035900021F4D071C1602068416921F001014161CD
:1035A000202084F8390084F83A00002084F838009C
:1035B0000320BDE8F0812068006836EA000004D0EE
:1035C0000020B842D9D00020F3E70120F9E700003D
:1035D00010B50348FEF7B4FEBDE81040FFF7C6BBC8
:1035E0001C0300200148FEF73BBE00005C030020E6
:1035F000FEE7000010B50A4C2068C068C043C00751
:1036000009D1084800698047216800204862216884
:103610006420C862E06021686FF00100086110BD9D
:1036200078020020B00000200FB4054B10B503A9AC
:10363000044A029800F028F810BC5DF814FB000062
:103640006D3B0008A40100200907090E002804DBD7
:1036500000F1E02080F80014704700F00F0000F146
:10366000E02080F8141D704702E008C8121F08C14E
:10367000002AFAD170477047002001E001C1121FF3
:10368000002AFBD1704700002DE9FF4F8DB00F4697
:103690000546002606E025280BD0DDE90F129047ED
:1036A0006D1C761C28780028F5D111B03046BDE895
:1036B000F08F0024A246A1460122EC4900E0044319
:1036C00015F8013F203B02FA03F00842F7D12878B1
:1036D0002A2810D06FF02F022878A0F13001092994
:1036E00014D80AEB8A0102EB410144F0020400EB1A
:1036F000010A6D1CF0E701CF5FEA000A03D544F42C
:103700000054CAF1000A44F002046D1C28782E28E7
:1037100017D115F8010F44F004042A280ED06FF0D9
:103720002F022878A0F1300109290AD809EB890174
:1037300002EB410100EB01096D1CF2E757F8049B15
:103740006D1C28786C280FD006DC4C2817D0682810
:103750000DD06A2814D104E0742810D07A280FD133
:103760000DE044F400140AE044F4801401E044F451
:1037700040146978814202D104F580146D1C6D1CDF
:103780002A786E2A1FD00CDC632A31D004DC002A90
:103790008BD0582A11D1A3E0642A68D0692A0CD1B1
:1037A00065E0732A2ED004DC6F2A73D0702A04D10E
:1037B0009BE0752A6FD0782A6ED01046DDE90F1293
:1037C0009047761C50E1C4F30250022806D003282B
:1037D00009D0042801CF09D0066045E101CFF117D7
:1037E000C0E9006140E101CF06803DE106703BE1A8
:1037F00017F8040B8DF8000000208DF80100EB464F
:10380000012003E057F804BB4FF0FF3061074FF091
:10381000000102D40DE008F10101884649450FDAA4
:103820008045F8DB1BF808100029F4D108E008F106
:10383000010188468142FADB1BF808100029F6D105
:10384000DDE90F23AAEB08008146214600F036F996
:10385000304400EB080604E0DDE90F121BF8010B11
:103860009047B8F10108F7D221464846F7E00A210F
:10387000C4F302534FF0000B0891022B04D001CF88
:10388000C117032B09D00AE0FF1D27F00707F7E84F
:10389000020108E032E01FE020E000B2C117042B73
:1038A00001D140B2C117031E71F1000307DA4FF0D6
:1038B000000CD0EB0C006CEB01012D2302E0230582
:1038C00004D52B238DF82430012303E0E30701D036
:1038D0002023F7E7984658E00A2110E010210EE077
:1038E00010204FF0000B08900CE010214FF0000B5F
:1038F00044F004044FF00809089103E008214FF058
:10390000000B0891C4F30253022B04D001CF002115
:10391000032B06D006E0FF1D27F00707F7E802019A
:1039200003E080B2042B00D1C0B24FF0000823079F
:103930002BD5702A07D0DDF820C08CF0100C5CEA83
:103940000B0C05D00EE040238DF82430012308E055
:1039500050EA010306D030238DF824308DF825205D
:1039600002239846DDF820C08CF0080C5CEA0B0CB2
:103970000BD150EA010301D1630706D530238DF83E
:1039800024304FF00108A9F10109582A04D038A2C7
:103990000B9208AA0A920BE03AA2F9E75B46089A52
:1039A000FCF70EFC0B9B9B5C0A9A521E0A9213704A
:1039B00050EA0102F2D10A98ADEB000000F1200BB1
:1039C000600702D524F4803401E04FF00109D945A5
:1039D00002DDA9EB0B0000E0002000EB0B014144ED
:1039E0000890AAEB010AE00306D4DDE90F23214683
:1039F000504600F063F806444FF0000908E009A9BA
:103A000011F80900DDE90F12904709F10109761C50
:103A1000C145F4DBE0030CD5DDE90F232146504618
:103A200000F04CF8064404E0DDE90F123020904726
:103A3000761C0899481E08900029F5DC08E00A98D1
:103A40000A990078491C0A91DDE90F129047761C0B
:103A5000BBF10001ABF1010BF1DC21465046DDE981
:103A60000F2300F019F806446D1C1BE6092801001D
:103A700030313233343536373839616263646566E4
:103A800000000000303132333435363738394142A6
:103A900043444546000000002DE9F041044600255E
:103AA0001E461746880404D405E039462020B04756
:103AB0006D1C641EF9D52846BDE8F0812DE9F04162
:103AC000044600251E469046C80301D5302700E075
:103AD0002027880404D505E041463846B0476D1CD0
:103AE000641EF9D52846BDE8F081D0ED000AF4EE59
:103AF000C00AF1EE10FA01DD80ED000AD0ED000AF7
:103B0000B1EE400AF4EEC00AF1EE10FA01D280EDF7
:103B1000000A704710B58AB001210020CDE90510D8
:103B2000039004900E240290CDE9081400900190B7
:103B3000079169460B48FDF767F80A48FDF7DCFB7B
:103B400002210848FCF7E9FF694607480594FDF79C
:103B50005BF80548FDF7D0FB02210348FCF7DDFFC9
:103B60000AB010BDA8010020D001002013B54FF607
:103B7000FF73012269460248FEF77AFD00981CBDDA
:103B80001C03002010B58389C3810A88F1EE040A62
:103B900052BA82814C88D31A64BA04808C88B3F5F7
:103BA000805F64BA00EE104AB8EE400A20EE200AA8
:103BB000DFED0B0A20EE200A80ED010A897981727F
:103BC000416901DD491E03E013F5805F01DA491CFC
:103BD000416102EB4131028A891A816110BD000006
:103BE00000008038098849BA81810182704700004D
:103BF000FDF72AFEFFF77AF9FEF734FEFEF71CFE0A
:103C0000FEF7A0FEFEF7D2FEFEF728FFFEF742FF0A
:103C1000FEF7CAFDFEF7ECFDFEF7FCFE64220C4940
:103C20000C48FEF7F0FC0C48FEF7AEF90B48FEF727
:103C3000ABF9FFF76FFF0A210846FFF70DF8FEF713
:103C40004BFFFCF715FD00BFFCF728FDFCE700006B
:103C5000B80200205C030020F80100203802002098
:103C600000B530EEC01A80ED080AC0ED050A80EDFF
:103C70000B1AD0ED141A01469FED692A30EEC00AE6
:103C8000F5EEC01AB1EE400AF1EE10FA0ED0B5EE24
:103C9000C01AF1EE10FA02DDF0EE410A01E0F0EE9A
:103CA000400AF4EEE10AF1EE10FA12DCD1ED150A49
:103CB000F5EEC00AF1EE10FA0ED0B5EEC01AF1EE34
:103CC00010FA01DDB0EE410AB4EEE00AF1EE10FAAE
:103CD00002D2B0EE420A00BD886D01F13402032821
:103CE00002D0042838D07AE091ED000A104620EE88
:103CF000010A81ED0C0A91ED0D0AD1ED010A00EEE9
:103D0000810A81ED0D0A91ED0A0AD1ED020A31EE28
:103D1000400A20EE200A81ED0E0A91ED180AB8EE55
:103D2000400AFFF7E2FE91ED0C0AD1ED0D0A01F118
:103D30003C0030EE200AD1ED0E0A30EE200A81ED73
:103D40000F0A91ED170AB8EE400AFFF7CEFE91ED8B
:103D50000F0A81ED100A42E091ED0A0AD1ED001A36
:103D6000104671EE400A60EEA10AC1ED0C0AD1EDD9
:103D7000010A60EE810AC1ED0D0AF0EE000A00EEC4
:103D8000601A91ED090AD1ED020A31EE000A20EE27
:103D9000200A81ED0E0A91ED180AB8EE400AFFF7ED
:103DA000A4FE91ED0C0AD1ED0D0A01F1480030EEB0
:103DB000200AD1ED0E0A30EE200A81ED110AD1ED74
:103DC000130A30EE800A81ED120A91ED170AB8EE5F
:103DD000400AFFF78AFE91ED120A81ED130A91ED78
:103DE0000A0A81ED090A91ED0B0A81ED0A0A91EDAB
:103DF000070A81ED060A91ED080A81ED070A91EDA7
:103E0000040A81ED030A91ED050A81ED040A886D2B
:103E1000032802D091ED120A00BD91ED0F0A00BDFA
:103E20000000000000F1580C8CE80E0080EC030A42
:103E30007047000000EE100A0D48F8EE400A9FEDB2
:103E40000B0A80EE801A00EE901AF8EE600A80ED00
:103E5000871A80EE801A00EE902AF8EE600A80ED54
:103E6000881A80EE801A80ED891A704700007A4423
:103E70003005002000EE100A0D48F8EE400A9FEDD4
:103E80000B0A80EE801A00EE901AF8EE600A80EDC0
:103E9000871A80EE801A00EE902AF8EE600A80ED14
:103EA000881A80EE801A80ED891A704700007A44E3
:103EB000B807002070B51948194C1A4E007A4FF413
:103EC0000045012814D0032819D0022825D1012249
:103ED00040212046FDF7A5FC002229463046FDF78B
:103EE000A0FC012280212046BDE87040FDF799BC6E
:103EF000002240212046FDF794FC0122EDE700223C
:103F000080212046FDF78DFC002240212046FDF750
:103F100088FC002229463046E6E770BDFC030020FD
:103F2000000402400000024000687047F0B589B00C
:103F3000DDE90E45DDE91067029100210591DDE91B
:103F400012CE0491082106918DF800208DF80130E1
:103F50008DF804608DF805708DF802408DF806C06C
:103F60008DF803508DF807E001236A4602A9FCF79B
:103F7000E6FD09B0F0BD00002DE9F04186B0002457
:103F80002F251927CDE90445CDE900470E46804687
:103F900002940394DA2322460A212C48FFF7C6FF35
:103FA000CDE90445CDE9004702940394DA230022C9
:103FB0000B212648FFF7BAFF0520FDF741FB0A2534
:103FC0000294CDE9034513270595CDE90047DA238F
:103FD000002229461D48FFF7A9FF0294CDE90345B9
:103FE0000595CDE90047DA2300220B211748FFF79A
:103FF0009DFF0520FDF724FB42460A211348FEF7EA
:1040000049FF32460B211148FEF744FF0520FDF71A
:1040100017FB1F26CDE90446102502940394DA23EA
:1040200000220A210948CDE90045FFF77FFFCDE9CD
:10403000044602940394DA2300220B210348CDE9BD
:104040000045FFF773FF06B0BDE8F081A80100202E
:1040500070B596B0054614AB01AA03A900F0DEF9CD
:10406000002824D18DF84C001D4C042615E000BF1B
:10407000216806EBC00014AB08586A460BA900F093
:10408000CDF9002813D103A90BA800F0FAFB80B1E9
:104090009DF84C00401C8DF84C00217DC0B281423F
:1040A000E6D8207D9DF84C1088420ED1042016B031
:1040B00070BD9DF800009DF80410884201D90220CF
:1040C000F5E79DF84C00A075EBE713A9284600F032
:1040D0005DFA0028EBD19DF84C0060750020E6E702
:1040E000B00000202DE9F0417F4C9AB0A57D207DE5
:1040F000A8427DD90421206801EBC50119AB4058C5
:1041000010AA11A900F08AF911A978A0FFF78CFA7A
:1041100000270DF1180833E0208B0121B940084237
:1041200017D0222173A0FFF77FFA384600F098FAE3
:10413000011971A02431FFF777FA22216DA0FFF752
:1041400073FA384600F08CFA2044243048F82700EF
:104150000CE0384600F084FA2044416A48F8271001
:10416000E07D08B365A000BFFFF75EFA9DF8400050
:10417000401E874202D063A0FFF756FA7F1CFFB2B1
:104180009DF840008742C7D35FA0FFF74DFA00F0CB
:104190009FFA607D0B2814D2DFE800F0080D31385B
:1041A0004048525E6B78880058A0DDE7206850F8E0
:1041B0003500804704E0206850F83510069888479D
:1041C000064600F05FFA9DF8640001287DD050A0FB
:1041D000FFF72AFA94F8EC0000280DD0D4F8F0107C
:1041E0000A20B1FBF0F200FB1212B1FBF0F100E08B
:1041F00002E048A0FFF718FA1AB0BDE8F081206885
:1042000050F83520DDE906019047D9E7206806AE71
:1042100050F8353096E807009847D1E7206806AE99
:1042200050F8355096E80F00A847C9E70A98009063
:10423000206806AE50F8355096E80F00A847BFE753
:10424000DDE90A01CDE90001206806AE50F83550DD
:1042500096E80F00A847B3E70AAB06AE93E807005D
:104260008DE80700206850F8355096E80F00A84701
:10427000A6E70AAE96E80F008DE80F00206806AEAC
:1042800050F8355096E80F00A84799E70BAE96E82E
:104290000F0001AE86E80F000A980090206806AE75
:1042A00050F8355096E80F00A84789E70CAE96E81D
:1042B0000F0002AE86E80F00DDE90A01CDE900013A
:1042C000206806AE50F8355000E003E096E80F0095
:1042D000A84775E7E07D314618B116A0FFF7A4F9AD
:1042E00078E717A0FAE70000B00000200D0A257358
:1042F0002800000025630000257300003058255871
:10430000000000002C00000029000000256C640063
:104310003B0D0A0046756E6374696F6E2052756EB0
:104320002054696D653A25642E2531646D730D0A3C
:10433000000000003D305825583B0D0A00000000E9
:104340003D256C753B0D0A00F0B50446002007467C
:104350000646054623782C2B03D0292B04D01BB10D
:1043600003E015B9012700E015B31EB1222B2BD0B5
:10437000F7B92FE0A3F1300CBCF1090F19D92D2B9F
:1043800017D02B2B15D0A3F1610CBCF1050F10D960
:10439000A3F1410CBCF1050F0BD9582B09D0782B98
:1043A00007D0222B0CD0202B1DD02C2B1BD0FF266E
:1043B0000CE05FB9612B00D3203B01F8013B12E018
:1043C00027B9012635460EE0002567B100230B70A2
:1043D0001670F0BD3DB15C2B02D1401CC0B2641C14
:1043E000237801F8013B401CC0B2641CB2E730B531
:1043F000002515700AE001F8014B1478401C641C7C
:10440000E4B214709C4201D3012030BD0478202C0A
:1044100001D0002CEFD10D70002030BD2DE9FF4FF1
:10442000002582B0984604462F462E464FF0010BD9
:10443000AA462A46A94615E0202910D002F07F039B
:10444000052B0CD202B9802202F07F03042B01D18C
:104450002A290AD1521C0DF80310D2B201E0852A94
:1044600004D0401C01780029E6D162B102F07F023D
:1044700044A10DF80290684600F003FA38B101211A
:1044800088F8001000224FF00008234614E088F856
:104490000090F7E708F1010000F0FF0813F8010FA2
:1044A000202801D02A2807D1184600F077F92828BB
:1044B00002D02A2800D047461878282801D00028A2
:1044C000E8D10FB13C44641C00273946207888B1FC
:1044D000282804D0292806D022280FD010E079B946
:1044E0006D1CEDB20CE059B925B16D1E15F0FF053C
:1044F00001D00CE00127012E32D039E049B1002172
:104500004DB12C280FD020281FD028281DD07AB1DB
:1045100017E00121F4E7202820D0039B18700398AE
:10452000401C03901AE0521C4FF0010BD2B20CE079
:10453000BAF1050F05D20DF80A000AF1010000F0EA
:10454000FF0A0BF1010000F0FF0B012D06D1BBF1BA
:10455000020F03D1761C4FF0030BF6B2641CB5E7D3
:104560000DF80A9007A1684600F08BF900B9002603
:1045700004980670039880F8009006B03846BDE8AD
:10458000F08F0000766F6964000000002DE9F043B1
:1045900000248946314DB5B0214622466B18491C8E
:1045A000C9B29A760A29F9D303E000BF10F8011FB7
:1045B00091B101782829F9D1461C012733AA69460F
:1045C0003046FFF7C1FE06449DF8CC0040B10128FB
:1045D00024D0FF2839D10BE0012035B0BDE8F083AD
:1045E0009DF8000080B334A9684600F0DFF808B1F8
:1045F0000220F2E7204600F033F828443499416263
:10460000288B07FA04F18843288304202919887627
:10461000641CE4B20A2C18D90320DEE7684600F0D7
:1046200045F900F10108204600F01AF841196846E2
:10463000243100F032F9288B07FA04F108432919D4
:10464000288381F81A80E3E7FFE73078292801D032
:104650000028B3D189F800400020BEE7B000002058
:10466000024610B500200146054B05E05C18491CC8
:10467000A47EC9B22044C0B29142F7D310BD00005D
:10468000B0000020094800680169C943CA07084909
:10469000D1F8F02004D14FF6FF731A44C1F8F0208E
:1046A000406A1044C1F8F000704700007802002012
:1046B000B000002001490120C8757047B0000020FB
:1046C0000246012000E05043491EC9B2FBD27047A8
:1046D00007486FF00101026811610268090CD1629C
:1046E000C1600068002141620248C0F8F0107047C4
:1046F00078020020B00000202DE9F041164D2888F6
:10470000010426D51549C0B2154F00260E54B968CC
:104710001248884704000FD0104800F0D1F8012853
:1047200001D0040014D0012C09D0022C09D0032C94
:1047300009D0042C0CD108E0F868804708E009A0F3
:1047400004E00BA002E00DA000E00FA0FEF76CFF5C
:104750002E80BDE8F081000072000020400A002099
:10476000B0000020BAAFCAFDB4EDCEF3210D0A00AF
:10477000B2CECAFDB4EDCEF3210D0A00B2CECAFD11
:10478000CCABB6E0210D0A00CEB4D5D2B5BDC6A5DE
:10479000C5E4B5C4BAAFCAFD210D0A0010F8011F67
:1047A000202901D10028F9D1C8B270472DE9F04382
:1047B0000D4600244FF00A09264601462C600A786F
:1047C000A2F13003092B14D903782D2B01D02B2B08
:1047D00000D174B1A2F14103052B0AD9582A05D0A2
:1047E00012F0FF0F17D00120BDE8F083012C02D09A
:1047F000F9E7412A01D34FF0100902782D2A04D09D
:104800002B2A04D0641CE4B203E0022600E0012657
:10481000401C491CD3E70746B9F1100F01D084B101
:1048200012E0032C01D20220DEE73878302802D1D2
:104830007878582801D00320D6E7A41EE4B2BF1C24
:1048400001E00420D0E70CB1641EE4B23878A0F196
:104850003001092901D8884601E0A0F13708214636
:104860004846FFF72DFF2A6808FB0020286017F84C
:10487000011F0029E7D1022E01D14042286000200B
:10488000B2E702780B789A4201D00120704712B14A
:10489000401C491CF5E70020704702780A70027836
:1048A000002A02D0401C491CF7E77047002102781B
:1048B0001AB1491CC9B2401CF9E70846704700000C
:1048C000F0B58DB004461E236A4602A9FFF78FFD9E
:1048D0000190002872D19DF80000271800263E4C58
:1048E0008DF800609DF8000054F8201002A8FFF732
:1048F000C8FF38B19DF80000401CC0B28DF8000020
:104900000728EFD39DF800000425344C072855D222
:10491000DFE800F00404395A605F5E0030A0FEF763
:1049200083FE30A0FEF780FE3EA0FEF77DFE4DA088
:10493000FEF77AFE5BA0FEF777FE6AA0FEF774FE34
:1049400078A0FEF771FE86A0FEF76EFE8BA0FEF744
:104950006BFE93A0FEF768FE97A0FEF765FE9CA095
:10496000FEF762FEA1A0FEF75FFEA7A0FEF75CFEC9
:10497000B3A0FEF759FEC0A0FEF756FECBA0FEF78F
:1049800053FED7A01BE016A0FEF74EFEE4A0FEF7F4
:104990004BFE8DF800600BE0216805EBC000095864
:1049A000EFA0FEF741FE9DF80000401C8DF80000CE
:1049B000217D9DF800008142EED856E257E2FEF7D5
:1049C00033FE00200DB0F0BD05A0FEF72DFECBE1BB
:1049D0002CE20CE2EBE1000074000020B0000020AB
:1049E0000D0A00002D2D2D2D2D2D2D2D2D2D2D2D94
:1049F0002D2D2D2D2D2D2D2D2D2D2D2D55534D4165
:104A000052542056332E332D2D2D2D2D2D2D2D2D61
:104A10002D2D2D2D2D2D2D2D2D2D2D2D2D2D2D20D3
:104A20000D0A00002020202055534D415254CAC782
:104A3000D3C9414C49454E54454BBFAAB7A2B5C452
:104A4000D2BBB8F6C1E9C7C9B5C4B4AEBFDAB5F7D1
:104A5000CAD4BBA5BDBBD7E9BCFE2CCDA8B9FD20EF
:104A60000D0A0000CBFC2CC4E3BFC9D2D4CDA8B939
:104A7000FDB4AEBFDAD6FACAD6B5F7D3C3B3CCD03D
:104A8000F2C0EFC3E6B5C4C8CEBACEBAAFCAFD2CE9
:104A9000B2A2D6B4D0D02ED2F2B4CB2CC4E3BFC9CC
:104AA0000D0A0000D2D4CBE6D2E2B8FCB8C4BAAF4B
:104AB000CAFDB5C4CAE4C8EBB2CECAFD28D6A7B3B6
:104AC000D6CAFDD7D62831302F3136BDF8D6C62C00
:104AD000D6A7B3D6B8BACAFD29A1A2D7D6B7FBB418
:104AE000AE0D0A00A1A2BAAFCAFDC8EBBFDAB5D8B5
:104AF000D6B7B5C8D7F7CEAAB2CECAFD292CB5A570
:104B0000B8F6BAAFCAFDD7EEB6E0D6A7B3D6313005
:104B1000B8F6CAE4C8EBB2CECAFD2CB2A2D6A7B38F
:104B2000D60D0A00BAAFCAFDB7B5BBD8D6B5CFD43B
:104B3000CABE2ED6A7B3D6B2CECAFDCFD4CABEBD8A
:104B4000F8D6C6C9E8D6C3B9A6C4DC2CD6A7B3D656
:104B5000BDF8D6C6D7AABBBBB9A6C4DC2E0D0A00C9
:104B6000BCBCCAF5D6A7B3D63A7777772E6F7065F7
:104B70006E6564762E636F6D0D0A000055534D41CE
:104B80005254D3D037B8F6CFB5CDB3C3FCC1EE285D
:104B9000B1D8D0EBD0A1D0B4293A0D0A0000000062
:104BA0003F3A202020202020BBF1C8A1B0EFD6FA48
:104BB000D0C5CFA20D0A000068656C703A20202095
:104BC000BBF1C8A1B0EFD6FAD0C5CFA20D0A000044
:104BD0006C6973743A202020BFC9D3C3B5C4BAAF7F
:104BE000CAFDC1D0B1ED0D0A0A00000069643A2087
:104BF00020202020BFC9D3C3BAAFCAFDB5C44944E1
:104C0000C1D0B1ED0D0A0A006865783A2020202055
:104C1000B2CECAFD3136BDF8D6C6CFD4CABE2CBA84
:104C2000F3B8FABFD5B8F12BCAFDD7D6BCB4D6B409
:104C3000D0D0BDF8D6C6D7AABBBB0D0A0A0000006B
:104C40006465633A20202020B2CECAFD3130BDF821
:104C5000D6C6CFD4CABE2CBAF3B8FABFD5B8F12B9A
:104C6000CAFDD7D6BCB4D6B4D0D0BDF8D6C6D7AA64
:104C7000BBBB0D0A0A00000072756E74696D653A5F
:104C8000312CBFAAC6F4BAAFCAFDD4CBD0D0BCC6B3
:104C9000CAB13B302CB9D8B1D5BAAFCAFDD4CBD04C
:104CA000D0BCC6CAB13B0D0A0A000000C7EBB0B4C5
:104CB000D5D5B3CCD0F2B1E0D0B4B8F1CABDCAE416
:104CC000C8EBBAAFCAFDC3FBBCB0B2CECAFDB2A23C
:104CD000D2D4BBD8B3B5BCFCBDE1CAF82E0D0A00D6
:104CE0002D2D2D2D2D2D2D2D2D2D2D2D2D2D2D2DF4
:104CF0002D2D2D2D2D2D2D2D2D2D414C49454E5435
:104D0000454B2D2D2D2D2D2D2D2D2D2D2D2D2D2D9D
:104D10002D2D2D2D2D2D2D2D2D2D2D200D0A00006D
:104D20002D2D2D2D2D2D2D2D2D2D2D2D2D2D2D2DB3
:104D30002D2D2D2D2D2D2D2D2DBAAFCAFDC7E5B54D
:104D4000A52D2D2D2D2D2D2D2D2D2D2D2D2D2D2D1B
:104D50002D2D2D2D2D2D2D2D2D2D2D2D200D0A0000
:104D600025730D0A0000000042A0FEF75DFC8DF8DF
:104D7000006016E0216805EBC0000BAB08580AAADA
:104D800002A9FFF74BFB9DF80010206850F8312076
:104D900002A948A0FEF748FC9DF80000401C8DF8D1
:104DA0000000217D9DF800008142E3D85DE0AFF274
:104DB000D030FEF739FC6A4602A93846FFF7C4FA3C
:104DC0009DF80000002843D101A902A8FFF7EEFCDE
:104DD0008DF8000010B104283AD102E03AA0019900
:104DE0001CE03CA0FEF720FC0120E0753DE038A06F
:104DF000FEF71AFC6A4602A93846FFF7A5FA9DF8A5
:104E0000000028BB01A902A8FFF7D0FC8DF8000024
:104E100010B104281CD104E033A00199FEF704FC72
:104E200023E034A0FEF700FCE6751EE028A0FEF7A4
:104E3000FBFB6A4602A93846FFF786FA9DF8000098
:104E400030B901A902A8FFF7B1FC8DF8000008B144
:104E50000220B7E5019810F0FF0084F8EC0001D0C3
:104E600029A000E02FA0FEF7DFFB19A0A7E5012095
:104E7000A8E500002D2D2D2D2D2D2D2D2D2D2D2D89
:104E80002D2D2D2D2D2D2D2D2D2D2D2D2DBAAFCAA6
:104E9000FD204944202D2D2D2D2D2D2D2D2D2D2D59
:104EA0002D2D2D2D2D2D2D2D2D2D2D2D2D2D2D2D32
:104EB000200D0A0025732069642069733A0D0A30B9
:104EC00058253038580D0A004845583A305825586A
:104ED0000D0A00003136BDF8D6C6B2CECAFDCFD419
:104EE000CABE210D0A0000004445433A256C750DE9
:104EF0000A0000003130BDF8D6C6B2CECAFDCFD40C
:104F0000CABE210D0A00000052756E2054696D65FD
:104F10002043616C63756C6174696F6E204F4E0D38
:104F20000A00000052756E2054696D652043616C63
:104F300063756C6174696F6E204F46460D0A000000
:104F400001607047000610160006101600000000F1
:104F50000000000001020304060708090000000029
:104F6000010203043F0000006465630069640000FF
:104F700072756E74696D650068656C700000000084
:104F80006C6973740000000068657800766F69646E
:104F9000207069645F72657365745F7370656564C2
:104FA0002875696E7433325F74206B702C207569BC
:104FB0006E7433325F74206B692C2075696E7433A4
:104FC000325F74206B642900766F696420706964B5
:104FD0005F72657365745F706F736974696F6E2853
:104FE00075696E7433325F74206B702C2075696E36
:104FF0007433325F74206B692C2075696E743332A0
:105000005F74206B64290000766F69642077726991
:1050100074655F6164647228753332206164647200
:105020002C7533322076616C2900000075333220F4
:10503000726561645F6164647228753332206164F3
:10504000647229006450000800000020A8010000DC
:1050500018060008B4500008A8010020600D0000E8
:1050600078360008C132018210035924F413644FCA
:105070001B0878041A80041A6C041A88041A68043D
:105080001A700413293F14082C501B08410C1A08ED
:105090000813753E1B088C0C1A35081AC808229094
:1050A0001420B546140851401B08E5041AF90C4AAF
:0450B00004BB01DD5F
:040000050800018965
:00000001FF
